:100000000C943E000C9450000C9450000C94500042
:100010000C9450000C9450000C9450000C94500020
:100020000C9450000C9450000C9450000C94500010
:100030000C9450000C9452000C9450000C945000FE
:100040000C9450000C9450000C9450000C945000F0
:100050000C9450000C9450000C9450000C945000E0
:100060000C9450000C9450000C9450000C945000D0
:100070000C9450000C9450000C94500011241FBE9E
:10008000CFEFD0E1DEBFCDBF11E0A0E0B1E001C015
:100090001D92AB30B107E1F70E94F2100C943911B8
:1000A0000C9400001F920F920FB60F9211248F93A1
:1000B000809103018F5F80930301813039F41092A6
:1000C0000301809106018F5F8093060180910601F4
:1000D0008A3061F410920601809107018F5F80934E
:1000E0000701809104018F5F8093040180910701D3
:1000F0008A3039F410920701809109018F5F809353
:100100000901809109018A3089F4109209018091D6
:100110000A018F5F80930A01809100018F5F8093B5
:100120000001809108018F5F809308018091000198
:10013000853019F481E0809305018F910F900FBEF7
:100140000F901F90189511B814B817B81AB88330CB
:10015000910509F418C2843091053CF48130910571
:1001600061F0029709F015C50BC18430910509F4BF
:100170000DC3059709F00DC50CC46330710509F472
:1001800072C06430710544F46130710571F0623001
:10019000710509F0FEC438C06430710509F492C0DD
:1001A0006530710509F0F5C4BCC043305105E9F074
:1001B0004430510544F44130510569F04230510555
:1001C00009F0E7C40DC044305105A1F04530510598
:1001D00009F0DFC414C0089A539A109A5B980895E6
:1001E000099A539A119A5B9808950A9A539A129A07
:1001F0005B9808950B9A539A139A5B9808950C9AFA
:10020000539A149A5B98089543305105E9F04430AD
:10021000510544F44130510569F04230510509F06F
:10022000B8C40DC044305105A1F04530510509F066
:10023000B0C414C0089A549A109A5C980895099A08
:10024000549A119A5C9808950A9A549A129A5C9852
:1002500008950B9A549A139A5C9808950C9A549A9C
:10026000149A5C98089543305105E9F044305105E3
:1002700044F44130510569F04230510509F089C418
:100280000DC044305105A1F04530510509F081C43D
:1002900014C0089A559A109A5D980895099A559A2B
:1002A000119A5D9808950A9A559A129A5D98089540
:1002B0000B9A559A139A5D9808950C9A559A149A28
:1002C0005D98089543305105E9F04430510544F4F8
:1002D0004130510569F04230510509F05AC40DC052
:1002E00044305105A1F04530510509F052C414C005
:1002F000089A569A109A5E980895099A569A119AF1
:100300005E9808950A9A569A129A5E9808950B9AE2
:10031000569A139A5E9808950C9A569A149A5E9873
:10032000089543305105E9F04430510544F441301B
:10033000510569F04230510509F02BC40DC044301D
:100340005105A1F04530510509F023C414C0089AA5
:10035000579A109A5F980895099A579A119A5F9838
:1003600008950A9A579A129A5F9808950B9A579A85
:10037000139A5F9808950C9A579A149A5F98089563
:100380006330710509F472C06430710544F4613062
:10039000710571F06230710509F0FBC338C064303B
:1003A000710509F492C06530710509F0F2C3BCC053
:1003B00043305105E9F04430510544F441305105D2
:1003C00069F04230510509F0E4C30DC044305105D5
:1003D000A1F04530510509F0DCC314C0089A539AC6
:1003E00010985B9A0895099A539A11985B9A089508
:1003F0000A9A539A12985B9A08950B9A539A1398F3
:100400005B9A08950C9A539A14985B9A0895433016
:100410005105E9F04430510544F44130510569F08B
:100420004230510509F0B5C30DC044305105A1F06B
:100430004530510509F0ADC314C0089A549A10987C
:100440005C9A0895099A549A11985C9A08950A9AA8
:10045000549A12985C9A08950B9A549A13985C9A3D
:1004600008950C9A549A14985C9A08954330510553
:10047000E9F04430510544F44130510569F042300F
:10048000510509F086C30DC044305105A1F0453037
:10049000510509F07EC314C0089A559A10985D9AC8
:1004A0000895099A559A11985D9A08950A9A559A4D
:1004B00012985D9A08950B9A559A13985D9A08952B
:1004C0000C9A559A14985D9A089543305105E9F0B5
:1004D0004430510544F44130510569F04230510532
:1004E00009F057C30DC044305105A1F04530510506
:1004F00009F04FC314C0089A569A10985E9A08954E
:10050000099A569A11985E9A08950A9A569A1298DC
:100510005E9A08950B9A569A13985E9A08950C9ACB
:10052000569A14985E9A089543305105E9F0443084
:10053000510544F44130510569F04230510509F04C
:1005400028C30DC044305105A1F04530510509F0D4
:1005500020C314C0089A579A10985F9A0895099A70
:10056000579A11985F9A08950A9A579A12985F9A23
:1005700008950B9A579A13985F9A08950C9A579A70
:1005800014985F9A08956330710509F472C064305D
:10059000710544F46130710571F06230710509F044
:1005A000F8C238C06430710509F492C06530710535
:1005B00009F0EFC2BCC043305105E9F044305105A9
:1005C00044F44130510569F04230510509F0E1C26F
:1005D0000DC044305105A1F04530510509F0D9C294
:1005E00014C0089A3F9A109A47980895099A3F9A1A
:1005F000119A479808950A9A3F9A129A479808952F
:100600000B9A3F9A139A479808950C9A3F9A149A16
:100610004798089543305105E9F04430510544F4BA
:100620004130510569F04230510509F0B2C20DC0A8
:1006300044305105A1F04530510509F0AAC214C05B
:10064000089A3E9A109A46980895099A3E9A119AE5
:10065000469808950A9A3E9A129A469808950B9AD7
:100660003E9A139A469808950C9A3E9A149A469880
:10067000089543305105E9F04430510544F44130C8
:10068000510569F04230510509F083C20DC0443074
:100690005105A1F04530510509F07BC214C0089AFC
:1006A0003B9A109A43980895099A3B9A119A439855
:1006B00008950A9A3B9A129A439808950B9A3B9A86
:1006C000139A439808950C9A3B9A149A4398089564
:1006D00043305105E9F04430510544F441305105AF
:1006E00069F04230510509F054C20DC04430510543
:1006F000A1F04530510509F04CC214C0089A3C9A4B
:10070000109A44980895099A3C9A119A4498089529
:100710000A9A3C9A129A449808950B9A3C9A139A12
:10072000449808950C9A3C9A149A4498089543303A
:100730005105E9F04430510544F44130510569F068
:100740004230510509F025C20DC044305105A1F0D9
:100750004530510509F01DC214C0089A3D9A109AFF
:1007600045980895099A3D9A119A459808950A9ACC
:100770003D9A129A459808950B9A3D9A139A459876
:1007800008950C9A3D9A149A45980895633071051E
:1007900009F472C06430710544F46130710571F080
:1007A0006230710509F0F5C138C06430710509F493
:1007B00092C06530710509F0ECC1BCC043305105F1
:1007C000E9F04430510544F44130510569F04230BC
:1007D000510509F0DEC10DC044305105A1F045308E
:1007E000510509F0D6C114C0089A3F9A1098479A4B
:1007F0000895099A3F9A1198479A08950A9A3F9A3C
:100800001298479A08950B9A3F9A1398479A089519
:100810000C9A3F9A1498479A089543305105E9F08D
:100820004430510544F44130510569F042305105DE
:1008300009F0AFC10DC044305105A1F0453051055C
:1008400009F0A7C114C0089A3E9A1098469A0895D4
:10085000099A3E9A1198469A08950A9A3E9A1298D1
:10086000469A08950B9A3E9A1398469A08950C9AC0
:100870003E9A1498469A089543305105E9F0443061
:10088000510544F44130510569F04230510509F0F9
:1008900080C10DC044305105A1F04530510509F02B
:1008A00078C114C0089A3B9A1098439A0895099AFF
:1008B0003B9A1198439A08950A9A3B9A1298439A40
:1008C00008950B9A3B9A1398439A08950C9A3B9A71
:1008D0001498439A089543305105E9F04430510586
:1008E00044F44130510569F04230510509F051C1DD
:1008F0000DC044305105A1F04530510509F049C102
:1009000014C0089A3C9A1098449A0895099A3C9AFF
:100910001198449A08950A9A3C9A1298449A089514
:100920000B9A3C9A1398449A08950C9A3C9A1498FE
:10093000449A089543305105E9F04430510544F498
:100940004130510569F04230510509F022C10DC016
:1009500044305105A1F04530510509F01AC114C0C9
:10096000089A3D9A1098459A0895099A3D9A1198C7
:10097000459A08950A9A3D9A1298459A08950B9AB5
:100980003D9A1398459A08950C9A3D9A1498459A61
:1009900008956330710509F472C06430710544F440
:1009A0006130710571F06230710509F0F2C038C034
:1009B0006430710509F492C06530710509F0E9C031
:1009C000BCC043305105E9F04430510544F4413096
:1009D000510569F04230510509F0DBC00DC04430CB
:1009E0005105A1F04530510509F0D3C014C0089A53
:1009F000249A109A2C980895099A249A119A2C985E
:100A000008950A9A249A129A2C9808950B9A249A77
:100A1000139A2C9808950C9A249A149A2C98089555
:100A200043305105E9F04430510544F4413051055B
:100A300069F04230510509F0ACC00DC04430510599
:100A4000A1F04530510509F0A4C014C0089A239ABA
:100A5000109A2B980895099A239A119A2B98089521
:100A60000A9A239A129A2B9808950B9A239A139A0A
:100A70002B9808950C9A239A149A2B980895433032
:100A80005105E9F04430510544F44130510569F015
:100A90004230510509F07DC00DC044305105A1F030
:100AA0004530510509F075C014C0089A229A109A71
:100AB0002A980895099A229A119A2A9808950A9ACA
:100AC000229A129A2A9808950B9A229A139A2A988F
:100AD00008950C9A229A149A2A9808954330510541
:100AE000E9F04430510544F44130510569F0423099
:100AF000510509F04EC00DC044305105A1F04530FC
:100B0000510509F046C014C0089A219A109A2998F4
:100B10000895099A219A119A299808950A9A219A72
:100B2000129A299808950B9A219A139A2998089550
:100B30000C9A219A149A2998089543305105D9F0B6
:100B4000443051053CF44130510559F042305105D3
:100B500001F50CC04430510599F045305105C9F4F8
:100B600014C0089A209A109A28980895099A209AF1
:100B7000119A289808950A9A209A129A2898089506
:100B80000B9A209A139A289808950C9A209A149AEE
:100B9000289808950F931F9311B814B817B81AB86E
:100BA0008330910509F440C2843091053CF48130D2
:100BB000910561F0029709F08AC51FC18430910543
:100BC00009F449C3059709F082C55CC46330710517
:100BD00009F47AC06430710544F46130710571F034
:100BE0006230710509F073C53CC06430710509F4C9
:100BF0009EC06530710509F06AC5CCC081E090E007
:100C000061E070E041E050E00E94A30000ED17E0D9
:100C1000C8010197F1F782E090E061E070E041E007
:100C200050E00E94A300C8010197F1F783E090E033
:100C300061E070E041E050E00E94A300C80101972C
:100C4000F1F784E090E061E070E041E050E00E9464
:100C5000A300C8010197F1F785E090E061E070E042
:100C60005BC481E090E061E070E042E050E00E940F
:100C7000A30000ED17E0C8010197F1F782E090E0D2
:100C800061E070E042E050E00E94A300C8010197DB
:100C9000F1F783E090E061E070E042E050E00E9414
:100CA000A300C8010197F1F784E090E061E070E0F3
:100CB00042E050E00E94A300C8010197F1F785E0EF
:100CC00090E061E070E05DC481E090E061E070E0A0
:100CD00043E050E00E94A30000ED17E0C801019737
:100CE000F1F782E090E061E070E043E050E00E94C4
:100CF000A300C8010197F1F783E090E061E070E0A4
:100D000043E050E00E94A300C8010197F1F784E09E
:100D100090E061E070E043E050E00E94A300C80171
:100D20000197F1F785E090E061E070E05FC481E059
:100D300090E061E070E044E050E00E94A30000ED2C
:100D400017E0C8010197F1F782E090E061E070E000
:100D500044E050E00E94A300C8010197F1F783E04E
:100D600090E061E070E044E050E00E94A300C80120
:100D70000197F1F784E090E061E070E044E050E03A
:100D80000E94A300C8010197F1F785E090E061E0BF
:100D900070E061C481E090E061E070E045E050E027
:100DA0000E94A30000ED17E0C8010197F1F782E06F
:100DB00090E061E070E045E050E00E94A300C801CF
:100DC0000197F1F783E090E061E070E045E050E0EA
:100DD0000E94A300C8010197F1F784E090E061E070
:100DE00070E045E050E00E94A300C8010197F1F7D0
:100DF00085E090E061E070E063C46330710509F460
:100E00007AC06430710544F46130710571F062306C
:100E1000710509F05CC43CC06430710509F49EC0E2
:100E20006530710509F053C4CCC081E090E062E008
:100E300070E041E050E00E94A30000ED17E0C8011F
:100E40000197F1F782E090E062E070E041E050E06D
:100E50000E94A300C8010197F1F783E090E062E0EF
:100E600070E041E050E00E94A300C8010197F1F753
:100E700084E090E062E070E041E050E00E94A30076
:100E8000C8010197F1F785E090E062E070E044C3AB
:100E900081E090E062E070E042E050E00E94A30058
:100EA00000ED17E0C8010197F1F782E090E062E001
:100EB00070E042E050E00E94A300C8010197F1F702
:100EC00083E090E062E070E042E050E00E94A30026
:100ED000C8010197F1F784E090E062E070E042E041
:100EE00050E00E94A300C8010197F1F785E090E06F
:100EF00062E070E046C381E090E062E070E043E0D1
:100F000050E00E94A30000ED17E0C8010197F1F73F
:100F100082E090E062E070E043E050E00E94A300D5
:100F2000C8010197F1F783E090E062E070E043E0F0
:100F300050E00E94A300C8010197F1F784E090E01F
:100F400062E070E043E050E00E94A300C801019716
:100F5000F1F785E090E062E070E048C381E090E066
:100F600062E070E044E050E00E94A30000ED17E072
:100F7000C8010197F1F782E090E062E070E044E0A0
:100F800050E00E94A300C8010197F1F783E090E0D0
:100F900062E070E044E050E00E94A300C8010197C5
:100FA000F1F784E090E062E070E044E050E00E94FD
:100FB000A300C8010197F1F785E090E062E070E0DE
:100FC0004AC381E090E062E070E045E050E00E94BA
:100FD000A30000ED17E0C8010197F1F782E090E06F
:100FE00062E070E045E050E00E94A300C801019774
:100FF000F1F783E090E062E070E045E050E00E94AD
:10100000A300C8010197F1F784E090E062E070E08E
:1010100045E050E00E94A300C8010197F1F785E088
:1010200090E062E070E04CC36330710509F47AC06F
:101030006430710544F46130710571F062307105FE
:1010400009F045C33CC06430710509F49EC06530A9
:10105000710509F03CC3CCC081E090E063E070E032
:1010600041E050E00E94A30000ED17E0C8010197A5
:10107000F1F782E090E063E070E041E050E00E9430
:10108000A300C8010197F1F783E090E063E070E00E
:1010900041E050E00E94A300C8010197F1F784E00D
:1010A00090E063E070E041E050E00E94A300C801DE
:1010B0000197F1F785E090E063E070E02DC281E0F8
:1010C00090E063E070E042E050E00E94A30000ED99
:1010D00017E0C8010197F1F782E090E063E070E06B
:1010E00042E050E00E94A300C8010197F1F783E0BD
:1010F00090E063E070E042E050E00E94A300C8018D
:101100000197F1F784E090E063E070E042E050E0A6
:101110000E94A300C8010197F1F785E090E063E029
:1011200070E02FC281E090E063E070E043E050E0C7
:101130000E94A30000ED17E0C8010197F1F782E0DB
:1011400090E063E070E043E050E00E94A300C8013B
:101150000197F1F783E090E063E070E043E050E056
:101160000E94A300C8010197F1F784E090E063E0DA
:1011700070E043E050E00E94A300C8010197F1F73E
:1011800085E090E063E070E031C281E090E063E0F0
:1011900070E044E050E00E94A30000ED17E0C801B9
:1011A0000197F1F782E090E063E070E044E050E006
:1011B0000E94A300C8010197F1F783E090E063E08B
:1011C00070E044E050E00E94A300C8010197F1F7ED
:1011D00084E090E063E070E044E050E00E94A3000F
:1011E000C8010197F1F785E090E063E070E033C259
:1011F00081E090E063E070E045E050E00E94A300F1
:1012000000ED17E0C8010197F1F782E090E063E09C
:1012100070E045E050E00E94A300C8010197F1F79B
:1012200083E090E063E070E045E050E00E94A300BE
:10123000C8010197F1F784E090E063E070E045E0D9
:1012400050E00E94A300C8010197F1F785E090E00B
:1012500063E070E035C26330710509F47AC0643030
:10126000710544F46130710571F06230710509F067
:101270002EC23CC06430710509F49EC06530710512
:1012800009F025C2CCC081E090E064E070E041E06C
:1012900050E00E94A30000ED17E0C8010197F1F7AC
:1012A00082E090E064E070E041E050E00E94A30042
:1012B000C8010197F1F783E090E064E070E041E05D
:1012C00050E00E94A300C8010197F1F784E090E08C
:1012D00064E070E041E050E00E94A300C801019783
:1012E000F1F785E090E064E070E016C181E090E005
:1012F00064E070E042E050E00E94A30000ED17E0DF
:10130000C8010197F1F782E090E064E070E042E00C
:1013100050E00E94A300C8010197F1F783E090E03C
:1013200064E070E042E050E00E94A300C801019731
:10133000F1F784E090E064E070E042E050E00E9469
:10134000A300C8010197F1F785E090E064E070E048
:1013500018C181E090E064E070E043E050E00E945A
:10136000A30000ED17E0C8010197F1F782E090E0DB
:1013700064E070E043E050E00E94A300C8010197E0
:10138000F1F783E090E064E070E043E050E00E9419
:10139000A300C8010197F1F784E090E064E070E0F9
:1013A00043E050E00E94A300C8010197F1F785E0F7
:1013B00090E064E070E01AC181E090E064E070E0E9
:1013C00044E050E00E94A30000ED17E0C80101973F
:1013D000F1F782E090E064E070E044E050E00E94C9
:1013E000A300C8010197F1F783E090E064E070E0AA
:1013F00044E050E00E94A300C8010197F1F784E0A7
:1014000090E064E070E044E050E00E94A300C80176
:101410000197F1F785E090E064E070E01CC181E0A5
:1014200090E064E070E045E050E00E94A30000ED31
:1014300017E0C8010197F1F782E090E064E070E006
:1014400045E050E00E94A300C8010197F1F783E056
:1014500090E064E070E045E050E00E94A300C80125
:101460000197F1F784E090E064E070E045E050E03F
:101470000E94A300C8010197F1F785E090E064E0C5
:1014800070E01EC16330710509F47EC064307105DF
:1014900044F46130710571F06230710509F017C1D3
:1014A0003EC06430710509F4A4C06530710509F0CF
:1014B0000EC1D4C081E090E065E070E041E050E012
:1014C0000E94A30000ED17E0C8010197F1F782E048
:1014D00090E065E070E041E050E00E94A300C801A8
:1014E0000197F1F783E090E065E070E041E050E0C3
:1014F0000E94A300C8010197F1F784E090E065E045
:1015000070E041E050E00E94A300C8010197F1F7AC
:1015100085E090E065E070E041E050E0D3C081E01C
:1015200090E065E070E042E050E00E94A30000ED32
:1015300017E0C8010197F1F782E090E065E070E004
:1015400042E050E00E94A300C8010197F1F783E058
:1015500090E065E070E042E050E00E94A300C80126
:101560000197F1F784E090E065E070E042E050E040
:101570000E94A300C8010197F1F785E090E065E0C3
:1015800070E042E050E09EC081E090E065E070E0F5
:1015900043E050E00E94A30000ED17E0C80101976E
:1015A000F1F782E090E065E070E043E050E00E94F7
:1015B000A300C8010197F1F783E090E065E070E0D7
:1015C00043E050E00E94A300C8010197F1F784E0D6
:1015D00090E065E070E043E050E00E94A300C801A5
:1015E0000197F1F785E090E065E070E043E050E0BE
:1015F00069C081E090E065E070E044E050E00E9466
:10160000A30000ED17E0C8010197F1F782E090E038
:1016100065E070E044E050E00E94A300C80101973B
:10162000F1F783E090E065E070E044E050E00E9474
:10163000A300C8010197F1F784E090E065E070E055
:1016400044E050E00E94A300C8010197F1F785E053
:1016500090E065E070E044E050E034C081E090E06C
:1016600065E070E045E050E00E94A30000ED17E067
:10167000C8010197F1F782E090E065E070E045E095
:1016800050E00E94A300C8010197F1F783E090E0C9
:1016900065E070E045E050E00E94A300C8010197BA
:1016A000F1F784E090E065E070E045E050E00E94F2
:1016B000A300C8010197F1F785E090E065E070E0D4
:1016C00045E050E00E94A300C8010197F1F71F9187
:1016D0000F9108950F931F938330910509F42CC245
:1016E000843091053CF48130910561F0029709F056
:1016F00062C515C18430910509F42BC3059709F023
:101700005AC534C46330710509F476C0643071057C
:1017100044F46130710571F06230710509F04BC518
:101720003AC06430710509F498C06530710509F05C
:1017300042C5C4C081E090E061E070E041E050E06B
:101740000E94A30000ED17E0C8010197F1F781E0C6
:1017500090E062E070E041E050E00E94A300C80128
:101760000197F1F781E090E063E070E041E050E044
:101770000E94A300C8010197F1F781E090E064E0C6
:1017800070E041E050E00E94A300C8010197F1F72A
:1017900081E090E033C481E090E061E070E042E0FD
:1017A00050E00E94A30000ED17E0C8010197F1F797
:1017B00081E090E062E070E042E050E00E94A3002F
:1017C000C8010197F1F781E090E063E070E042E04A
:1017D00050E00E94A300C8010197F1F781E090E07A
:1017E00064E070E042E050E00E94A300C80101976D
:1017F000F1F781E090E037C481E090E061E070E0D3
:1018000043E050E00E94A30000ED17E0C8010197FB
:10181000F1F781E090E062E070E043E050E00E9488
:10182000A300C8010197F1F781E090E063E070E068
:1018300043E050E00E94A300C8010197F1F781E066
:1018400090E064E070E043E050E00E94A300C80133
:101850000197F1F781E090E03BC481E090E061E026
:1018600070E044E050E00E94A30000ED17E0C801E2
:101870000197F1F781E090E062E070E044E050E031
:101880000E94A300C8010197F1F781E090E063E0B6
:1018900070E044E050E00E94A300C8010197F1F716
:1018A00081E090E064E070E044E050E00E94A3003A
:1018B000C8010197F1F781E090E03FC481E090E03A
:1018C00061E070E045E050E00E94A30000ED17E009
:1018D000C8010197F1F781E090E062E070E045E037
:1018E00050E00E94A300C8010197F1F781E090E069
:1018F00063E070E045E050E00E94A300C80101975A
:10190000F1F781E090E064E070E045E050E00E9493
:10191000A300C8010197F1F781E090E043C4633070
:10192000710509F476C06430710544F461307105C5
:1019300071F06230710509F03EC43AC0643071053F
:1019400009F498C06530710509F035C4C4C082E05F
:1019500090E061E070E041E050E00E94A30000ED03
:1019600017E0C8010197F1F782E090E062E070E0D3
:1019700041E050E00E94A300C8010197F1F782E026
:1019800090E063E070E041E050E00E94A300C801F5
:101990000197F1F782E090E064E070E041E050E010
:1019A0000E94A300C8010197F1F782E090E026C3EE
:1019B00082E090E061E070E042E050E00E94A3002D
:1019C00000ED17E0C8010197F1F782E090E062E0D6
:1019D00070E042E050E00E94A300C8010197F1F7D7
:1019E00082E090E063E070E042E050E00E94A300FB
:1019F000C8010197F1F782E090E064E070E042E016
:101A000050E00E94A300C8010197F1F782E090E046
:101A10002AC382E090E061E070E043E050E00E9481
:101A2000A30000ED17E0C8010197F1F782E090E014
:101A300062E070E043E050E00E94A300C80101971B
:101A4000F1F782E090E063E070E043E050E00E9454
:101A5000A300C8010197F1F782E090E064E070E034
:101A600043E050E00E94A300C8010197F1F782E033
:101A700090E02EC382E090E061E070E044E050E04E
:101A80000E94A30000ED17E0C8010197F1F782E082
:101A900090E062E070E044E050E00E94A300C801E2
:101AA0000197F1F782E090E063E070E044E050E0FD
:101AB0000E94A300C8010197F1F782E090E064E082
:101AC00070E044E050E00E94A300C8010197F1F7E4
:101AD00082E090E032C382E090E061E070E045E0B7
:101AE00050E00E94A30000ED17E0C8010197F1F754
:101AF00082E090E062E070E045E050E00E94A300E8
:101B0000C8010197F1F782E090E063E070E045E002
:101B100050E00E94A300C8010197F1F782E090E035
:101B200064E070E045E050E00E94A300C801019726
:101B3000F1F782E090E036C36330710509F476C0B6
:101B40006430710544F46130710571F062307105E3
:101B500009F031C33AC06430710509F498C06530AA
:101B6000710509F028C3C4C083E090E061E070E033
:101B700041E050E00E94A30000ED17E0C80101978A
:101B8000F1F783E090E062E070E041E050E00E9415
:101B9000A300C8010197F1F783E090E063E070E0F3
:101BA00041E050E00E94A300C8010197F1F783E0F3
:101BB00090E064E070E041E050E00E94A300C801C2
:101BC0000197F1F783E090E019C283E090E061E0D3
:101BD00070E042E050E00E94A30000ED17E0C80171
:101BE0000197F1F783E090E062E070E042E050E0BE
:101BF0000E94A300C8010197F1F783E090E063E041
:101C000070E042E050E00E94A300C8010197F1F7A4
:101C100083E090E064E070E042E050E00E94A300C6
:101C2000C8010197F1F783E090E01DC283E090E0E6
:101C300061E070E043E050E00E94A30000ED17E097
:101C4000C8010197F1F783E090E062E070E043E0C3
:101C500050E00E94A300C8010197F1F783E090E0F3
:101C600063E070E043E050E00E94A300C8010197E8
:101C7000F1F783E090E064E070E043E050E00E9420
:101C8000A300C8010197F1F783E090E021C283E04F
:101C900090E061E070E044E050E00E94A30000EDBD
:101CA00017E0C8010197F1F783E090E062E070E08F
:101CB00044E050E00E94A300C8010197F1F783E0DF
:101CC00090E063E070E044E050E00E94A300C801AF
:101CD0000197F1F783E090E064E070E044E050E0C9
:101CE0000E94A300C8010197F1F783E090E025C2AC
:101CF00083E090E061E070E045E050E00E94A300E6
:101D000000ED17E0C8010197F1F783E090E062E091
:101D100070E045E050E00E94A300C8010197F1F790
:101D200083E090E063E070E045E050E00E94A300B3
:101D3000C8010197F1F783E090E064E070E045E0CE
:101D400050E00E94A300C8010197F1F783E090E002
:101D500029C26330710509F476C06430710544F41A
:101D60006130710571F06230710509F024C23AC02A
:101D70006430710509F498C06530710509F01BC223
:101D8000C4C084E090E061E070E041E050E00E9477
:101D9000A30000ED17E0C8010197F1F784E090E09F
:101DA00062E070E041E050E00E94A300C8010197AA
:101DB000F1F784E090E063E070E041E050E00E94E1
:101DC000A300C8010197F1F784E090E064E070E0BF
:101DD00041E050E00E94A300C8010197F1F784E0C0
:101DE00090E00CC184E090E061E070E042E050E0FF
:101DF0000E94A30000ED17E0C8010197F1F784E00D
:101E000090E062E070E042E050E00E94A300C80170
:101E10000197F1F784E090E063E070E042E050E089
:101E20000E94A300C8010197F1F784E090E064E00C
:101E300070E042E050E00E94A300C8010197F1F772
:101E400084E090E010C184E090E061E070E043E065
:101E500050E00E94A30000ED17E0C8010197F1F7E0
:101E600084E090E062E070E043E050E00E94A30074
:101E7000C8010197F1F784E090E063E070E043E08F
:101E800050E00E94A300C8010197F1F784E090E0C0
:101E900064E070E043E050E00E94A300C8010197B5
:101EA000F1F784E090E014C184E090E061E070E03C
:101EB00044E050E00E94A30000ED17E0C801019744
:101EC000F1F784E090E062E070E044E050E00E94CE
:101ED000A300C8010197F1F784E090E063E070E0AF
:101EE00044E050E00E94A300C8010197F1F784E0AC
:101EF00090E064E070E044E050E00E94A300C8017C
:101F00000197F1F784E090E018C184E090E061E08F
:101F100070E045E050E00E94A30000ED17E0C8012A
:101F20000197F1F784E090E062E070E045E050E076
:101F30000E94A300C8010197F1F784E090E063E0FC
:101F400070E045E050E00E94A300C8010197F1F75E
:101F500084E090E064E070E045E050E00E94A3007F
:101F6000C8010197F1F784E090E01CC1633071056E
:101F700009F47EC06430710544F46130710571F07C
:101F80006230710509F017C13EC06430710509F473
:101F9000A4C06530710509F00EC1D4C085E090E0A1
:101FA00061E070E041E050E00E94A30000ED17E026
:101FB000C8010197F1F785E090E062E070E041E050
:101FC00050E00E94A300C8010197F1F785E090E07E
:101FD00063E070E041E050E00E94A300C801019777
:101FE000F1F785E090E064E070E041E050E00E94AD
:101FF000A300C8010197F1F785E090E065E070E08B
:1020000041E050E0D3C085E090E061E070E042E064
:1020100050E00E94A30000ED17E0C8010197F1F71E
:1020200085E090E062E070E042E050E00E94A300B2
:10203000C8010197F1F785E090E063E070E042E0CD
:1020400050E00E94A300C8010197F1F785E090E0FD
:1020500064E070E042E050E00E94A300C8010197F4
:10206000F1F785E090E065E070E042E050E09EC06E
:1020700085E090E061E070E043E050E00E94A30062
:1020800000ED17E0C8010197F1F785E090E062E00C
:1020900070E043E050E00E94A300C8010197F1F70F
:1020A00085E090E063E070E043E050E00E94A30030
:1020B000C8010197F1F785E090E064E070E043E04B
:1020C00050E00E94A300C8010197F1F785E090E07D
:1020D00065E070E043E050E069C085E090E061E0D9
:1020E00070E044E050E00E94A30000ED17E0C8015A
:1020F0000197F1F785E090E062E070E044E050E0A5
:102100000E94A300C8010197F1F785E090E063E029
:1021100070E044E050E00E94A300C8010197F1F78D
:1021200085E090E064E070E044E050E00E94A300AD
:10213000C8010197F1F785E090E065E070E044E0C8
:1021400050E034C085E090E061E070E045E050E0B0
:102150000E94A30000ED17E0C8010197F1F785E0A8
:1021600090E062E070E045E050E00E94A300C8010A
:102170000197F1F785E090E063E070E045E050E022
:102180000E94A300C8010197F1F785E090E064E0A8
:1021900070E045E050E00E94A300C8010197F1F70C
:1021A00085E090E065E070E045E050E00E94A3002B
:1021B000C8010197F1F71F910F9108950F98809131
:1021C0007A00806480937A0080917A0086FDFCCF4B
:1021D0002091780030917900309302012093010121
:1021E000C90108950F931F931092060110920701E1
:1021F0001092090110920A011092800089E08093E8
:1022000081008FE39FE19093890080938800809103
:102210006F00826080936F00789480917A00876865
:1022200080937A0080917C00876080937C0080910D
:102230007C00806880937C0080917A008064809329
:102240007A0080917A0086FDFCCF80917800909191
:10225000790090930201809301011FEF0FE10E942A
:10226000DE1080509240D8F311B91AB902B91BB8E8
:06227000F6CFF894FFCF49
:00000001FF
